:100000000C9435010C9400000C9400000C9400003A
:100010000C9400000C9400000C9400000C94000060
:100020000C9400000C9400000C9400000C94000050
:100030000C9400000C9400000C9400000C94000040
:100040000C9400000C9400000C9400000C94000030
:100050000C9464010C9400000C9400000C940000BB
:100060000C9400000C9400000C9400000C94000010
:10007000000000000000000000000100030001007B
:100080000300040005000500000007000800070049
:1000900008000700050058000000010003000100EF
:1000A0000300040005000500000007000800070029
:1000B0000800070005005800010003000500580073
:1000C0000400040005000400030001000400030014
:1000D0000100580000000100030005005800040062
:1000E00004000500040003000100040003000100F7
:1000F0005800000063000100010005000500060033
:10010000060005005800040004000300030002007C
:10011000020001005800050005000400040003006F
:10012000030002005800050005000400040003005D
:100130000300020058000100010005000500060050
:10014000060005005800040004000300030002003C
:1001500002000100580063000100020003000400D7
:100160000500030001005800060008000700060013
:10017000050058000400060005000400030001000B
:1001800058000200040003000200010058000400AF
:10019000030004000600050006000500030001003E
:1001A00003000200030004000500030058000400DF
:1001B000030004000600050006000500030001001E
:1001C0000300020003000400050003005800630060
:1001D0000200030005005800050058000500580003
:1001E00005005800050058000500580002000300F3
:1001F000050058000500580005005800050058008B
:1002000005005800050058000200030005005800D2
:10021000050058000500580005005800050058006A
:100220000500580005005800050058000400630050
:10023000010002000300040005000600070008009A
:100240005800630001000200700008000600720000
:100250007B000A027A0061008602F6007700E8025D
:1002600058015F006003D0010000F894EE27ECBB5A
:10027000F1E0FBBFEBBFE5BFE6BF8DE0A2E0BB272F
:10028000ED938A95E9F780E094E0A0E0B1E0ED938A
:100290000197E9F7E4E4F2E085919591009761F028
:1002A000A591B59105901590BF01F00105900D92B3
:1002B0000197E1F7FB01F0CFEFEFEDBFE4E0EEBF18
:1002C000C0E0D2E00C944002EA93FA93EFB7EA93CD
:1002D0001A930A9312B103B143B0E12FEC71C9F440
:1002E000033229F4E1E07E2E8824992407C0F4012A
:1002F000E050FE4F0083F40131964F01013219F4B2
:10030000E1E0E71509F005C0772450900002409025
:10031000010209911991E991EFBFF991E9911895BD
:10032000AA93159BFECFE881E3B95DC0AA93E8814B
:10033000F0E0E130A0E0FA0729F48FE296E10197BE
:10034000F1F747C0E230A0E0FA0729F489EB93E126
:100350000197F1F73EC0E330A0E0FA0729F481EC01
:1003600091E10197F1F735C0E430A0E0FA0729F4F4
:1003700084EA90E10197F1F72CC0E530A0E0FA079C
:1003800029F48AEC9EE00197F1F723C0E630A0E063
:10039000FA0729F480E59DE00197F1F71AC0E730EC
:1003A000A0E0FA0729F486ED9BE00197F1F711C070
:1003B000E830A0E0FA0729F486E19BE00197F1F725
:1003C00008C0E835A0E0FA0721F480E699E001973B
:1003D000F1F709C0AA93A881A83511F0C09AA6DF49
:1003E000C098A881A3DF21960895AA93E0E0E09346
:1003F0000802E0930902E981A0910802B091090284
:10040000F0E0EA17FB0754F0A881E4DFA8E0B2E0CF
:10041000ED91FD913196FE93EE93EDCFC0982EC0F5
:10042000BA93AA93E091C003F091C103A881B98166
:10043000EE0FFF1FAE0FBF1F0E94AC02E336A0E01D
:10044000FA07B1F0E6E4EA93E091C003F091C1034A
:10045000A981BA81EE0FFF1FAE0FBF1FAC91C5DFA0
:10046000A0ECB3E0ED91FD913196FE93EE93DACFDF
:10047000E0E0E093C003E093C10355242296089581
:10048000E0E8E0936100E0E0E0936100EABBEBBBF1
:10049000EFEFE7BBE0E0E8BBE4BBE5BBE1BBE2BB01
:1004A000E6B9E7B9E2B9E8E9E1B9E6E0ECBFE0E0D6
:1004B000ECBFEDE4E0B97894A42D32DFE1E3E5157B
:1004C000C1F4E41519F4AAE0B2E011C0E2E3E415C6
:1004D00019F4A6E8B2E00BC0E3E3E41519F4A8EEC2
:1004E000B2E005C0E4E3E41519F4A0E6B3E098DF58
:1004F00030C0E2E3E51569F5E1E3E41511F4A1E0AC
:1005000027C0E2E3E41511F4A2E022C0E3E3E4151E
:1005100011F4A3E01DC0E4E3E41511F4A4E018C055
:10052000E5E3E41511F4A5E013C0E6E3E41511F4E6
:10053000A6E00EC0E7E3E41511F4A7E009C0E8E384
:10054000E41511F4A8E004C0E9E3E41511F4A3E60E
:1005500041DFB2CF0000FECFED91FC9111970895DD
:00000001FF
